:10C0000000000420E90D010069E600002F0F010087
:10C0100069E6000069E6000069E6000069E60000E4
:10C0200000000000000000000000000069E60000C1
:10C0300069E600000000000069E6000069E6000013
:10C0400000000000000000000000000069E60000A1
:10C050000000000069E60000000000000000000091
:10C06000A5E6000069E6000069E6000069E6000058
:10C070000000000069E6000069E6000069E60000D3
:10C0800069E6000069E60000000000000000000012
:10C0900069E6000069E60000000000000000000002
:10C0A00069E60000000000000000000069E60000F2
:10C0B000C5E60000D9E6000069E6000069E6000078
:10C0C00069E6000069E6000069E6000069E6000034
:10C0D00069E600000000000069E6000000000000C2
:10C0E00069E6000000000000B1E60000000000006A
:10C0F00069E60000000000000000000000000000F1
:10C100000000000069E600000000000000000000E0
:10C11000000000000000000000000000000000001F
:10C120000000000069E600000000000000000000C0
:10C1300000000000000000000000000000000000FF
:04C1400069E60000AC
:10C1440080B588B001460290019100F0C4F90490D2
:10C15400FFE704A80590059800F050FF0090FFE762
:10C164000298049906900791069803F03BFA079900
:10C1740003F03FFAFFE708B080BD80B588B0014600
:10C184000290019101F077FE0490FFE704A8059066
:10C19400059800F0FDFE0090FFE7029804990690D0
:10C1A4000791069803F01EFA079903F022FAFFE7B5
:10C1B40008B080BD80B588B001460290019100F0BE
:10C1C40090F90490FFE704A80590059800F0F2FEAA
:10C1D4000090FFE70298049906900791069803F0EF
:10C1E40001FA079903F005FAFFE708B080BD80B5AE
:10C1F40088B001460290019100F0CBFA0490FFE769
:10C2040004A80590059800F0E7FE0090FFE7029867
:10C21400049906900791069803F0E4F9079903F04E
:10C22400E8F9FFE708B080BD80B588B00146029008
:10C23400019102F051FE0490FFE704A805900598CF
:10C2440000F07BFF0090FFE70298049906900791A5
:10C25400069803F0C7F9079903F0CBF9FFE708B094
:10C2640080BD80B588B001460290019100F0BEFA0D
:10C274000490FFE704A80590059800F0D1FE009013
:10C28400FFE70298049906900791069803F0AAF92B
:10C29400079903F0AEF9FFE708B080BD80B588B018
:10C2A40001460290019102F086FA0490FFE704A887
:10C2B4000590059800F0C6FE0090FFE702980499E7
:10C2C40006900791069803F08DF9079903F091F908
:10C2D400FFE708B080BD80B588B0014602900191A7
:10C2E40002F055FC0490FFE704A80590059800F0BF
:10C2F40071FD0090FFE70298049906900791069853
:10C3040003F070F9079903F074F9FFE708B080BDF2
:10C3140080B588B001460290019100F056FC04906B
:10C32400FFE704A80590059800F0C6FE0090FFE71B
:10C334000298049906900791069803F053F9079917
:10C3440003F057F9FFE708B080BD80B588B0014617
:10C354000290019101F0A6FE0490FFE704A8059065
:10C36400059800F05DFD0090FFE70298049906909F
:10C374000791069803F036F9079903F03AF9FFE7B5
:10C3840008B080BD85B00146029002980078C207CB
:10C39400002A0191009004D0FFE70098012804D0FE
:10C3A40002E00020039006E0FEDE029801300490D3
:10C3B40004980390FFE7039805B0704785B00146E1
:10C3C400029002980078C207002A0191009004D0DC
:10C3D400FFE70098012804D002E00020039006E063
:10C3E400FEDE02980130049004980390FFE703985E
:10C3F40005B0704786B001460490049800280246B0
:10C4040018BF012200280391029204D0FFE702988A
:10C41400012808D006E040F6C070C0F2010004F024
:10C42400BBF9FEDEFEDE0498059005980499002908
:10C43400019003D0FFE7019806B07047FBE786B090
:10C444000146049004980028024618BF01220028DF
:10C454000391029204D0FFE70298012808D006E075
:10C4640040F6C070C0F2010004F096F9FEDEFEDE74
:10C4740004980590059804990029019003D0FFE7DA
:10C48400019806B07047FBE780B584B002F054FF12
:10C494000390FFE703980190FFE7019800F0010182
:10C4A4000091FFE70098012804D0FFE700208DF8F1
:10C4B4000B0003E001208DF80B00FFE79DF80B0053
:10C4C40004B080BD83B001460190019802900298A7
:10C4D400009103B0704781B000200090009801B033
:10C4E400704781B000200090009801B0704783B07D
:10C4F40001460190019802900298009103B07047A0
:10C5040081B04FF0FF300090009801B0704783B0C5
:10C5140001460190019802900298009103B070477F
:10C5240083B001460190019802900298009103B0F3
:10C53400704785B00A46034603908DF813100292A3
:10C544000193FFE70398016821F01F0101609DF842
:10C55400130000F01F000090FFE703980168009AA1
:10C5640011430160039805B0704785B00A4603463D
:10C5740003908DF8131002920193FFE7039801686A
:10C5840021F0004101609DF81300C0070090FFE70F
:10C5940003980168009A11430160039805B070473D
:10C5A40084B0014602900298007802461E28019148
:10C5B400009216D80099DFE801F015191D212529EC
:10C5C4002D3135393D4145494D5155595D616569B7
:10C5D4006D7175797D818589100040208DF80F007B
:10C5E40078E0FEDE03208DF80F0073E005208DF85F
:10C5F4000F006FE008208DF80F006BE009208DF824
:10C604000F0067E00A208DF80F0063E00B208DF81F
:10C614000F005FE00D208DF80F005BE00E208DF819
:10C624000F0057E00F208DF80F0053E010208DF815
:10C634000F004FE011208DF80F004BE014208DF80F
:10C644000F0047E015208DF80F0043E018208DF807
:10C654000F003FE01B208DF80F003BE01C208DF8FD
:10C664000F0037E01D208DF80F0033E01E208DF8F9
:10C674000F002FE01F208DF80F002BE020208DF8F5
:10C684000F0027E021208DF80F0023E022208DF8F1
:10C694000F001FE023208DF80F001BE024208DF8ED
:10C6A4000F0017E026208DF80F0013E028208DF8E6
:10C6B4000F000FE02A208DF80F000BE02C208DF8DE
:10C6C4000F0007E031208DF80F0003E039208DF8CA
:10C6D4000F00FFE79DF80F0004B0704780B582B0EB
:10C6E40000F011FA0090FFE7009800F0010002B09A
:10C6F40080BD81B04FF0FF300090009801B07047CA
:10C7040083B001460190019802900298009103B011
:10C71400704783B0014601900198029002980091FD
:10C7240003B0704785B00A46034603908DF8131092
:10C7340002920193FFE70398016821F01F01016051
:10C744009DF8130000F01F000090FFE703980168B4
:10C75400009A11430160039805B0704785B00A46FA
:10C76400034603908DF8131002920193FFE7039898
:10C77400016821F0004101609DF81300C00700909A
:10C78400FFE703980168009A11430160039805B01C
:10C79400704781B000200090009801B0704783B0CA
:10C7A40001460190019802900298009103B07047ED
:10C7B40080B584B001460390039802910190FFE78D
:10C7C4000120019900EB91000022002A009006D17B
:10C7D400FFE7009802F0ACFDFFE704B080BD41F232
:10C7E4005C00C0F2010003F0D7FFFEDE81B0002040
:10C7F4000090009801B0704783B001460190019801
:10C8040002900298009103B0704780B584B001464D
:10C81400029040F21300C2F202000078C007002820
:10C82400009103D1FFE702F014FD03E000208DF82E
:10C834000F0003E001208DF80F00FFE79DF80F00C3
:10C8440004B080BD80B58CB013468C4686460590F6
:10C854008DF819108DF81A200DF119000493CDF8F4
:10C864000CC0CDF808E0FFF79BFE8DF81B00FFE736
:10C87400059802F0FCFC0790FFE79DF81B0000F010
:10C884009BF90190FFE7019801091E291BD8FFE7D6
:10C8940007980199084400F540709DF81A20089003
:10C8A4008DF8272008989DF827200A908DF82F20CE
:10C8B4000A9802F030FD9DF82F1002F084FEFFE785
:10C8C400FFE70CB080BD41F2E400C0F201004FF478
:10C8D400F872019903F07DFFFEDE80B58CB001464D
:10C8E4008DF81A000DF11A000591FFF759FE8DF825
:10C8F4001B00FFE702F0B6FC0790FFE79DF81B0062
:10C904000490FFE70498C1B2480900F055F9039078
:10C91400FFE703980F2828D8FFE70798039900EB4F
:10C92400810000F580709DF81B2002900192FFE7C2
:10C93400019800F01F01012202FA01F10022002AED
:10C9440000911BD1FFE70298089000990991089A79
:10C95400099B0A920B930A9802F044FE0B9902F089
:10C9640048FEFFE7FFE70CB080BD41F2F400C0F2DF
:10C9740001001022039903F02CFFFEDE41F2341073
:10C98400C0F2010003F008FFFEDE80B584B00A4661
:10C99400034602908DF80F109DF80F00019200934A
:10C9A40000F003F8FFE704B080BD80B58CB0014609
:10C9B4008DF81A000DF11A000591FFF7F1FD8DF8BD
:10C9C4001B00FFE702F04EFC0790FFE79DF81B00F9
:10C9D4000490FFE70498C1B2480900F0EDF8039011
:10C9E400FFE703980F2826D8FFE70798039900EB81
:10C9F40081009DF81B2002900192FFE7019800F04E
:10CA04001F01012202FA01F10022002A00911BD128
:10CA1400FFE70298089000990991089A099B0A92E5
:10CA24000B930A9802F0DEFD0B9902F0E2FDFFE79A
:10CA3400FFE70CB080BD41F24C10C0F2010010229F
:10CA4400039903F0C6FEFEDE41F25C10C0F2010061
:10CA540003F0A2FEFEDE80B58CB001468DF81A000C
:10CA64000DF11A000591FFF79BFD8DF81B00FFE700
:10CA740002F0F8FB0790FFE79DF81B000490FFE726
:10CA84000498C1B2480900F097F80390FFE70398AF
:10CA94000F2828D8FFE70798039900EB810000F5D9
:10CAA400C0709DF81B2002900192FFE7019800F0EE
:10CAB4001F01012202FA01F10022002A00911BD178
:10CAC400FFE70298089000990991089A099B0A9235
:10CAD4000B930A9802F086FD0B9902F08AFDFFE79A
:10CAE400FFE70CB080BD41F27410C0F201001022C7
:10CAF400039903F06EFEFEDE41F28410C0F20100E1
:10CB040003F04AFEFEDE80B584B0FFF7BDFC8DF86D
:10CB14000600FFE702F095F9FFE702F010FCFFE7DB
:10CB240003A80290029802F015F88DF80700FFE7B9
:10CB34000DF1060002F0A7FB0090FFE70098C10783
:10CB4400002903D0FFE702F077F9FFE79DF807001B
:10CB540004B080BD80B584B0FFF796FC8DF8060064
:10CB6400FFE702F06EF9FFE702F0E9FBFFE703A835
:10CB740002900298FFF749FE8DF80700FFE70DF1D8
:10CB8400060002F080FB0090FFE70098C10700292F
:10CB940003D0FFE702F050F9FFE79DF8070004B067
:10CBA40080BD80B582B0FFF7D5FF0090FFE7009805
:10CBB40000F0010002B080BD82B001468DF807008C
:10CBC4009DF80700009102B0704781B000200090EA
:10CBD400009801B0704783B001460190019802901B
:10CBE4000298009103B0704784B001460290029805
:10CBF4000078C207002A0191009009D0FFE700984D
:10CC0400012804D1FFE708208DF80F0004E0FEDEC0
:10CC140000208DF80F00FFE79DF80F0004B0704767
:10CC240085B00A46034603908DF8131002920193CF
:10CC3400FFE70398016821F00F0101609DF81300DC
:10CC440000F00F000090FFE703980168009A114379
:10CC54000160039805B0704780B584B00146029026
:10CC6400029801228DF80F209DF80F2001911146A2
:10CC740000F005F80090FFE7009804B080BD80B58F
:10CC840088B00A46034606908DF81F1006980DF1E9
:10CC94001F010590084604920393FFF7A5FF029035
:10CCA400FFE705980299FFF7BBFF0190FFE70198A2
:10CCB40008B080BD80B586B0014605900598039103
:10CCC40000F0A8FA0290FFE7029800F077FB0190C9
:10CCD400FFE7019806B080BD80B586B00146059097
:10CCE4000598039100F09FFA0290FFE7029800F084
:10CCF400B0FB0190FFE7019806B080BD80B586B017
:10CD0400014605900598039100F096FA0290FFE71A
:10CD1400029800F0E9FB0190FFE7019806B080BD9E
:10CD240080B586B0014605900598039100F08DFA10
:10CD34000290FFE7029800F022FC0190FFE70198BF
:10CD440006B080BD80B586B0014605900598039174
:10CD540000F072FE0290FFE7029800F047FF019096
:10CD6400FFE7019806B080BD80B586B00146059006
:10CD74000598039100F069FE0290FFE7029800F025
:10CD840080FF0190FFE7019806B080BD80B586B0B2
:10CD9400014605900598039100F060FE0290FFE7BC
:10CDA400029800F0B9FF0190FFE7019806B080BD3A
:10CDB40080B586B0014605900598039100F057FEB2
:10CDC4000290FFE7029800F0F2FF0190FFE701985C
:10CDD40006B080BD80B58AB00146099009980791D4
:10CDE40001F0DBFE0690FFE7069801F043FF059093
:10CDF400FFE7059801F0E3FE0490FFE7049802F0D2
:10CE040008F80390FFE7039801F0D0FE0290FFE7D3
:10CE1400029801F07AFF0190FFE701980AB080BD03
:10CE240080B586B0014605900598039101F041F95B
:10CE34000290FFE7029801F0F1F80190FFE70198F2
:10CE440006B080BD80B586B0014605900598039173
:10CE540000F016FC0290FFE7029800F03CFC019001
:10CE6400FFE7019806B080BD80B588B00146079001
:10CE74000798059100F0F2F90490FFE7049800F098
:10CE8400C9FB0390FFE7039800F0C4F90290FFE7A1
:10CE9400029800F093FA0190FFE7019808B080BD72
:10CEA40080B588B0014607900798059102F071F8A3
:10CEB4000490FFE70121049802F090F80390FFE743
:10CEC400039802F05DF80290FFE71D21029802F03A
:10CED40069F80190FFE7019808B080BD80B588B07B
:10CEE4000146079007980591FFF71AFB0490FFE7A6
:10CEF40001210498FFF739FB0390FFE70398FFF73C
:10CF040006FB0290FFE71C210298FFF712FB019039
:10CF1400FFE7019808B080BD80B588B0014607904E
:10CF240007980591FFF7F5FB0490FFE701210498AA
:10CF3400FFF714FC0390FFE70398FFF7E1FB02906F
:10CF4400FFE71B210298FFF7EDFB0190FFE7019833
:10CF540008B080BD80B588B0014607900798059158
:10CF640001F01CF80490FFE70121049801F03BF85C
:10CF74000390FFE7039801F008F80290FFE71A21F5
:10CF8400029801F014F80190FFE7019808B080BD01
:10CF940080B586B0014605900598039100F071FFB5
:10CFA4000290FFE7029802F0D9F80190FFE7019898
:10CFB40006B080BD80B586B0014605900598039102
:10CFC400FFF795FA0290FFE7029802F0F0F801905B
:10CFD400FFE7019806B080BD80B586B00146059094
:10CFE40005980391FFF7DBFB0290FFE7029802F03C
:10CFF40007F90190FFE7019806B080BD80B586B0BF
:10D004000146059005980391FFF75CFA0290FFE74B
:10D01400029802F027F80190FFE7019806B080BD5E
:10D0240080B586B00146059005980391FFF7E4FBAF
:10D034000290FFE7029801F0ECFF0190FFE70198EE
:10D0440006B080BD80B58EB001460D900D980B9151
:10D0540001F0C0FB0A90FFE70A9801F0B5FC0990C3
:10D06400FFE7099801F0BFFB0890FFE7089801F07B
:10D07400F6FC0790FFE7079801F0BEFB0690FFE778
:10D08400069801F037FD0590FFE7059801F099FB3C
:10D094000490FFE7049801F04CFC0390FFE7039829
:10D0A40001F0B3FB0290FFE7029801F054FB0190FA
:10D0B400FFE701980EB080BD80B586B001460590AB
:10D0C40005980391FFF787FD0290FFE70298FFF7A9
:10D0D400C3FD0190FFE7019806B080BD80B588B01C
:10D0E4000A4603460690079107980592049300F0B8
:10D0F4001DFB0390FFE70698012102F0A6FC0290B5
:10D10400FFE70398029900F01AFB0190FFE70198EA
:10D1140008B080BD80B586B001460590059803919E
:10D1240000F047F80290FFE70121029800F04AF866
:10D134000190FFE7019806B080BD80B586B0014636
:10D1440005900598039101F0CDFE0290FFE7029847
:10D1540001F09DFE0190FFE7019806B080BD80B507
:10D164008AB00A46034607900891089805920493EA
:10D1740000F062FC0390FFE7079800F041FC8DF893
:10D184002700FFE70DF1270000F091FC0290FFE774
:10D19400029800F00101039800F00DFD0190FFE7F3
:10D1A40001980AB080BD81B000200090009801B0C1
:10D1B400704783B001460190019802900298009153
:10D1C40003B0704785B00A4603460390ADF81210C9
:10D1D40002920193FFE70398016841F6FF729143BD
:10D1E4000160BDF812006FF35F300090FFE7039811
:10D1F4000168009A11430160039805B0704740F23A
:10D204007C20C2F20200704781B000200090009898
:10D2140001B0704783B001460190019802900298D2
:10D22400009103B0704783B00146019001980290C9
:10D234000298009103B0704783B0014601900198B1
:10D2440002900298009103B0704783B001460190A8
:10D25400019802900298009103B0704783B0014690
:10D264000190019802900298009103B0704784B035
:10D274000146029002980078C207002A01910090AA
:10D2840009D0FFE70098012804D1FFE701208DF8B9
:10D294000F0004E0FEDE00208DF80F00FFE79DF88C
:10D2A4000F0004B0704784B00146029002980078E1
:10D2B400C207002A0191009009D0FFE700980128D5
:10D2C40004D1FFE701208DF80F0004E0FEDE00200A
:10D2D4008DF80F00FFE79DF80F0004B0704784B08D
:10D2E4000146029002980078C207002A019100903A
:10D2F40009D0FFE70098012804D1FFE701208DF849
:10D304000F0004E0FEDE00208DF80F00FFE79DF81B
:10D314000F0004B0704784B0014602900298007870
:10D32400C207002A0191009009D0FFE70098012864
:10D3340004D1FFE701208DF80F0004E0FEDE002099
:10D344008DF80F00FFE79DF80F0004B0704784B01C
:10D354000146029002980078C207002A01910090C9
:10D3640009D0FFE70098012804D1FFE701208DF8D8
:10D374000F0004E0FEDE00208DF80F00FFE79DF8AB
:10D384000F0004B0704785B00A46034603908DF839
:10D39400131002920193FFE70398016821F004013E
:10D3A40001609DF8130080000090FFE70398016876
:10D3B400009A11430160039805B0704780B584B0AA
:10D3C40001460290029801228DF80F209DF80F204B
:10D3D4000191114600F005F80090FFE7009804B0B1
:10D3E40080BD80B588B00A46034606908DF81F10AC
:10D3F40006980DF11F010590084604920393FFF768
:10D4040036FF0290FFE7029800F001010598FFF74C
:10D41400BAFF0190FFE7019808B080BD85B00A46C5
:10D42400034603908DF8131002920193FFE70398CB
:10D43400016821F0080101609DF81300C00000900C
:10D44400FFE703980168009A11430160039805B04F
:10D45400704780B584B001460290029801228DF88D
:10D464000F209DF80F200191114600F005F800905F
:10D47400FFE7009804B080BD80B588B00A46034633
:10D4840006908DF81F1006980DF11F0105900846AF
:10D4940004920393FFF707FF0290FFE7029800F05E
:10D4A40001010598FFF7BAFF0190FFE7019808B062
:10D4B40080BD85B00A46034603908DF8131002928E
:10D4C4000193FFE70398016821F0100101609DF8C2
:10D4D400130000010090FFE703980168009A1143CC
:10D4E4000160039805B0704780B584B0014602908E
:10D4F400029801228DF80F209DF80F20019111460A
:10D5040000F005F80090FFE7009804B080BD80B5F6
:10D5140088B00A46034606908DF81F1006980DF150
:10D524001F010590084604920393FFF7D8FE02906A
:10D53400FFE7029800F001010598FFF7BAFF019098
:10D54400FFE7019808B080BD85B00A460346039002
:10D554008DF8131002920193FFE70398016821F0FC
:10D56400200101609DF8130040010090FFE703983B
:10D574000168009A11430160039805B0704780B5B3
:10D5840084B001460290029801228DF80F209DF884
:10D594000F200191114600F005F80090FFE7009874
:10D5A40004B080BD80B588B00A46034606908DF865
:10D5B4001F1006980DF11F0105900846049203936D
:10D5C400FFF7A9FE0290FFE7029800F00101059819
:10D5D400FFF7BAFF0190FFE7019808B080BD85B05E
:10D5E4000A46034603908DF8131002920193FFE755
:10D5F4000398016821F0005101609DF81300400771
:10D604000090FFE703980168009A114301600398B2
:10D6140005B0704780B584B001460290029801229B
:10D624008DF80F209DF80F200191114600F005F8A8
:10D634000090FFE7009804B080BD80B588B00A462A
:10D64400034606908DF81F1006980DF11F010590F2
:10D65400084604920393FFF77AFE0290FFE70298CC
:10D6640000F001010598FFF7BAFF0190FFE7019868
:10D6740008B080BD81B000200090009801B07047D0
:10D6840083B001460190019802900298009103B082
:10D69400704782B0014601900120009102B07047AA
:10D6A40085B00A46034603908DF813100292019345
:10D6B400FFE70398016821F0005101609DF8130011
:10D6C40040070090FFE703980168009A1143016046
:10D6D400039805B0704780B584B001460290029863
:10D6E400019100F005F80090FFE7009804B080BDB8
:10D6F40080B586B001460490049805AA03901046AC
:10D704000291FFF7C6FF0190FFE7019800F00101C5
:10D714000398FFF7C5FF0090FFE7009806B080BDAF
:10D7240081B000200090009801B0704783B001469A
:10D734000190019802900298009103B0704785B05F
:10D744000A4603460390049102920193FFE703986B
:10D754000021016004980090FFE703980168009A93
:10D7640011430160039805B0704780B588B0014645
:10D7740002900191FFF748FD0490FFE704A805908B
:10D784000598FFF7BBFA0090FFE70298049906900A
:10D794000791069801F026FF079901F02AFFFFE799
:10D7A40008B080BD80B588B0014602900191FFF7B2
:10D7B4002BFD0490FFE704A805900598FFF754FBA0
:10D7C4000090FFE70298049906900791069801F0EB
:10D7D40009FF079901F00DFFFFE708B080BD80B590
:10D7E40088B0014602900191FFF70EFD0490FFE717
:10D7F40004A805900598FFF793FA0090FFE70298B4
:10D80400049906900791069801F0ECFE079901F03F
:10D81400F0FEFFE708B080BD80B588B001460290F5
:10D824000191FFF7F1FC0490FFE704A80590059827
:10D83400FFF740FA0090FFE70298049906900791D9
:10D84400069801F0CFFE079901F0D3FEFFE708B078
:10D8540080BD80B588B0014602900191FFF7D4FCE9
:10D864000490FFE704A805900598FFF735FA0090A7
:10D87400FFE70298049906900791069801F0B2FE1A
:10D88400079901F0B6FEFFE708B080BD80B588B007
:10D8940001460290019100F0C9F80490FFE704A842
:10D8A40005900598FFF784FA0090FFE70298049921
:10D8B40006900791069801F095FE079901F099FEEC
:10D8C400FFE708B080BD80B588B0014602900191A1
:10D8D40000F0ACF80490FFE704A805900598FFF762
:10D8E40055FA0090FFE7029804990690079106986C
:10D8F40001F078FE079901F07CFEFFE708B080BDD7
:10D9040080B588B001460290019100F08FF8049030
:10D91400FFE704A805900598FFF726FA0090FFE7B3
:10D924000298049906900791069801F05BFE079906
:10D9340001F05FFEFFE708B080BD80B588B0014606
:10D944000290019100F072F80490FFE704A805909A
:10D954000598FFF7F7F90090FFE7029804990690FD
:10D964000791069801F03EFE079901F042FEFFE799
:10D9740008B080BD80B58CB0014602900298099031
:10D984000998019101F02EFE01F010FE0490FFE7CA
:10D99400049805900498069005A8079006A8089096
:10D9A40007980899FFF7DBFB0090FFE702980699B8
:10D9B4000A900B910A9801F015FE0B9901F019FEDB
:10D9C400FFE70CB080BD80B588B00146029001919C
:10D9D400FFF750FE0490FFE704A805900598FFF7B1
:10D9E40031FA0090FFE7029804990690079106988F
:10D9F40001F0F8FD079901F0FCFDFFE708B080BDD8
:10DA040080B584B0014603900398006880080291B1
:10DA14000190FFE7019800F0010000F031F8009058
:10DA2400FFE7009800F0010004B080BD81B0002041
:10DA34000090009801B0704783B0014601900198AE
:10DA440002900298009103B0704783B001460190A0
:10DA5400019802900298009103B0704783B0014688
:10DA64000190019802900298009103B0704783B02E
:10DA740001460190019802900298009103B070470A
:10DA840082B001468DF806009DF80600C007002804
:10DA9400009104D0FFE701208DF8070003E0002087
:10DAA4008DF80700FFE79DF8070002B0704780B5C6
:10DAB40084B001460390039841F29C12C0F2010223
:10DAC4000291114600F0A3F90190FFE7019800F0DC
:10DAD400010004B080BD84B0014602900298007831
:10DAE400C207002A0191009009D0FFE7009801289D
:10DAF40004D1FFE701208DF80F0004E0FEDE0020D2
:10DB04008DF80F00FFE79DF80F0004B0704784B054
:10DB14000146029002980078C207002A0191009001
:10DB240009D0FFE70098012804D1FFE701208DF810
:10DB34000F0004E0FEDE00208DF80F00FFE79DF8E3
:10DB44000F0004B0704784B0014602900298007838
:10DB5400C207002A0191009009D0FFE7009801282C
:10DB640004D1FFE701208DF80F0004E0FEDE002061
:10DB74008DF80F00FFE79DF80F0004B0704784B0E4
:10DB84000146029002980078C207002A0191009091
:10DB940009D0FFE70098012804D1FFE701208DF8A0
:10DBA4000F0004E0FEDE00208DF80F00FFE79DF873
:10DBB4000F0004B0704785B00A46034603908DF801
:10DBC400131002920193FFE70398016821F0040106
:10DBD40001609DF8130080000090FFE7039801683E
:10DBE400009A11430160039805B0704780B584B072
:10DBF40001460290029801228DF80F209DF80F2013
:10DC04000191114600F005F80090FFE7009804B078
:10DC140080BD80B588B00A46034606908DF81F1073
:10DC240006980DF11F010590084604920393FFF72F
:10DC340052FF0290FFE7029800F001010598FFF7F8
:10DC4400BAFF0190FFE7019808B080BD85B00A468D
:10DC5400034603908DF8131002920193FFE7039893
:10DC6400016821F0080101609DF81300C0000090D4
:10DC7400FFE703980168009A11430160039805B017
:10DC8400704780B584B001460290029801228DF855
:10DC94000F209DF80F200191114600F005F8009027
:10DCA400FFE7009804B080BD80B588B00A460346FB
:10DCB40006908DF81F1006980DF11F010590084677
:10DCC40004920393FFF723FF0290FFE7029800F00A
:10DCD40001010598FFF7BAFF0190FFE7019808B02A
:10DCE40080BD85B00A46034603908DF81310029256
:10DCF4000193FFE70398016821F0100101609DF88A
:10DD0400130000010090FFE703980168009A114393
:10DD14000160039805B0704780B584B00146029055
:10DD2400029801228DF80F209DF80F2001911146D1
:10DD340000F005F80090FFE7009804B080BD80B5BE
:10DD440088B00A46034606908DF81F1006980DF118
:10DD54001F010590084604920393FFF7F4FE029016
:10DD6400FFE7029800F001010598FFF7BAFF019060
:10DD7400FFE7019808B080BD85B00A4603460390CA
:10DD84008DF8131002920193FFE70398016821F0C4
:10DD9400200101609DF8130040010090FFE7039803
:10DDA4000168009A11430160039805B0704780B57B
:10DDB40084B001460290029801228DF80F209DF84C
:10DDC4000F200191114600F005F80090FFE700983C
:10DDD40004B080BD80B588B00A46034606908DF82D
:10DDE4001F1006980DF11F01059008460492039335
:10DDF400FFF7C5FE0290FFE7029800F001010598C5
:10DE0400FFF7BAFF0190FFE7019808B080BD92B018
:10DE14000A460346079008910798007800210F915D
:10DE24000E900E980F990692059304900391FFE7C4
:10DE340004980A9008990978002211921091109977
:10DE4400119A02910192FFE702980B900A990B9A9A
:10DE5400914208D1FFE7079808990C900D91012091
:10DE64008DF8270003E000208DF82700FFE79DF8D8
:10DE7400270012B0704781B000200090009801B0D4
:10DE8400704783B001460190019802900298009176
:10DE940003B0704780B588B001460290019100F04C
:10DEA4006DF80490FFE704A805900598FFF752F871
:10DEB4000090FFE70298049906900791069801F0F4
:10DEC40091FB079901F095FBFFE708B080BD80B591
:10DED40088B0014602900191FEF70BFC0490FFE725
:10DEE40004A805900598FFF717F80090FFE702983B
:10DEF400049906900791069801F074FB079901F0C4
:10DF040078FBFFE708B080BD80B588B00146029079
:10DF14000191FEF7F5FA0490FFE704A8059005982F
:10DF2400FEF7DCFF0090FFE7029804990690079142
:10DF3400069801F057FB079901F05BFBFFE708B077
:10DF440080BD80B588B001460290019101F011F8BE
:10DF54000490FFE704A805900598FEF7A1FF009040
:10DF6400FFE70298049906900791069801F03AFB9E
:10DF7400079901F03EFBFFE708B080BD81B04FF088
:10DF8400FF300090009801B0704783B001460190C3
:10DF9400019802900298009103B0704783B0014643
:10DFA4000190019802900298009103B0704785B0E7
:10DFB4000A46034603908DF8131002920193FFE77B
:10DFC4000398016821F01F0101609DF8130000F01F
:10DFD4001F000090FFE703980168009A1143016055
:10DFE400039805B0704785B00A46034603908DF840
:10DFF400131002920193FFE70398016821F0004196
:10E0040001609DF81300C0070090FFE703980168C2
:10E01400009A11430160039805B0704780B584B03D
:10E024000146029002980C228DF80F209DF80F20D3
:10E034000191114600F01BF80090FFE7009804B02E
:10E0440080BD85B00A460346039004910292019371
:10E05400FFE703980021016004980090FFE703980C
:10E064000168009A11430160039805B0704780B5B8
:10E0740088B00A46034606908DF81F1006980DF1E5
:10E084001F01059008460492039300F01BF80290C8
:10E09400FFE705980299FFF7D4FF0190FFE7019885
:10E0A40008B080BD81B04FF080600090009801B04E
:10E0B400704783B001460190019802900298009144
:10E0C40003B0704784B0014602900298007802467B
:10E0D4001128019100920FD80099DFE801F00E1287
:10E0E400161C22282E34383C40444A4E52565A09B3
:10E0F4004FF08050039050E0FEDE4FF49E200390DA
:10E104004BE04FF41D20039047E04BF20000C0F2B7
:10E114001300039041E045F20000C0F22700039091
:10E124003BE04FF20000C0F23A00039035E04AF2BF
:10E134000000C0F24E0003902FE04CF20000C0F249
:10E144007500039029E04FF40000039025E04FF49C
:10E154001D00039021E04FF4650003901DE04FF48F
:10E164006B00039019E049F20000C0F23A100390EA
:10E1740013E04FF0EB7003900FE04FF06C700390DE
:10E184000BE04FF08060039007E04FF0E8600390ED
:10E1940003E04FF070600390FFE7039804B070470A
:10E1A40080B582B00F208DF807009DF80700FEF7B8
:10E1B40052FCFFE702B080BD80B582B00F208DF81D
:10E1C40007009DF80700FEF788FBFFE702B080BD5B
:10E1D40080B582B010208DF807009DF80700FEF787
:10E1E4007CFBFFE702B080BD80B582B010208DF8C3
:10E1F40007009DF80700FEF72EFCFFE702B080BD84
:10E2040084B00A46034602900391002001920093D1
:10E2140004B0704780B582B040F21000C2F2020030
:10E22400FEF7CCF80190FFE70198FEF7E3F80090C1
:10E23400FFE7009802B080BD80B582B040F21100C3
:10E24400C2F20200FEF79EF80190FFE70198FEF784
:10E25400F6F80090FFE7009802B080BD9AB001463E
:10E2640001900091FFF7D6FF0390FFE7039800F0B9
:10E2740049FF0290FFE702981430FFF7CDFAFFE759
:10E28400FFF7C8FF0690FFE7069800F03BFF0590F4
:10E29400FFE705981430FFF7DCFAFFE7FFF7BAFF52
:10E2A4000990FFE7099800F02DFF0890FFE7089810
:10E2B4001430FFF75AFAFFE7FFF7ACFF0C90FFE7C3
:10E2C4000C9800F01FFF0B90FFE70B981430FFF73A
:10E2D40086FAFFE7FFF79EFF0F90FFE70F9800F025
:10E2E40011FF0E90FFE70E980430FFF726FBFFE7BF
:10E2F400FFF790FF1290FFE7129800F003FF1190D0
:10E30400FFE711980430FFF7FBFAFFE7FFF782FFFE
:10E314001590FFE7159800F0F5FE1490FFE71498A8
:10E324000430FFF7D0FAFFE7FFF774FF1890FFE718
:10E33400189800F0E7FE1790FFE717980430FFF7EE
:10E34400A5FAFFE7FFE7FEE7C6B0FEF758FF029025
:10E35400FFE7029803904FF4806104910399049AB3
:10E3640040F20000C2F2020000F0ECFFFFE7FEF70B
:10E37400B5F90190FFE7019800F0010140F21002A5
:10E38400C2F202021170FEF70CFC0090FFE7009845
:10E3940000F0010140F21102C2F202021170FFF713
:10E3A40039FF0690FFE7069800F08AFE0590FFE724
:10E3B400059800F26C50FDF78EFFFFE7FFF72AFF88
:10E3C4000990FFE7099800F07BFE0890FFE70898A2
:10E3D40000F22450FDF7B9FFFFE7FFF71BFF0C9095
:10E3E400FFE70C9800F07DFE0B90FFE70B980830D8
:10E3F400FFF7E9FAFFE7FFF70DFF0F90FFE70F982C
:10E4040000F06FFE0E90FFE70E981430FFF7CAF984
:10E41400FFE7FFF7FFFE1290FFE7129800F050FEAF
:10E424001190FFE7119800F20C50FFF78AFDFFE707
:10E43400FFF7F0FE1590FFE7159800F041FE1490E9
:10E44400FFE7149800F21450FFF75EFDFFE7FFF7B3
:10E45400E1FE1890FFE7189800F032FE1790FFE7EE
:10E46400179800F5A160FFF732FDFFE7FFF7D2FE32
:10E474001B90FFE71B9800F023FE1A90FFE71A9801
:10E4840000F5A260FFF706FDFFE7FFF7C3FE1E904D
:10E49400FFE71E9800F014FE1D90FFE71D9800F59D
:10E4A4008870FDF76AFEFFE7FFF7B4FE2190FFE7EF
:10E4B400219800F005FE2090FFE7209800F5907069
:10E4C400FDF778FEFFE7FFF7A5FE2490FFE7249809
:10E4D40000F0F6FD2390FFE7239800F59270FDF716
:10E4E40086FEFFE7FFF796FE2790FFE7279800F0E8
:10E4F400E7FD2690FFE7269800F5A270FDF720FEC1
:10E50400FFE7FFF787FE2A90FFE72A9800F0D8FD7F
:10E514002990FFE7299800F5AC70FDF7A2FEFFE70C
:10E52400FFF778FE2D90FFE72D9800F0C9FD2C90A1
:10E53400FFE72C9800F54070FDF7B0FEFFE7FFF70A
:10E5440069FE3090FFE7309800F0BAFD2F90FFE7A6
:10E554002F9800F5A060FDF7DBFEFFE7FFF76CFEE8
:10E564003290FFE732980F218DF8CF109DF8CF102D
:10E574000622FEF767F9FFE7FFF75EFE3490FFE738
:10E58400349810218DF8D7109DF8D7100622FEF785
:10E5940059F9FFE7FFF750FE3690FFE736980F2151
:10E5A4008DF8DF109DF8DF10FEF7EFF9FFE7FFF7B6
:10E5B40043FE3890FFE7389810218DF8E6109DF857
:10E5C400E610FEF7E2F9FFE700208DF8E700FFE729
:10E5D400FFE70A208DF8E700FFF71CFE3B90FFE7FA
:10E5E4003B9800F06DFD3A90FFE73A9800F24450F2
:10E5F4000DF1E7013C913C9900F07DFCFFE7FFF74A
:10E6040009FE3E90FFE73E9800F05AFD3D90FFE77B
:10E614003D9800F5A96000F08FFCFFE7FFF7FAFDD5
:10E624004190FFE7419800F04BFD4090FFE7409890
:10E634000830FDF7F9FDFFE7FFF7ECFD4490FFE735
:10E64400449800F04EFD4390FFE743980430FFF7F1
:10E6540091F9FFE749F20000C0F2D030FEF7A8F8C4
:10E66400FFE7B5E780B584B04EF60450CEF2000063
:10E6740001F01AF80290FFE70298C1B210390022A3
:10E68400002A019105D1FFE70198ADF80E0004B00E
:10E6940080BD41F2D410C0F2010002F07DF8FEDE2C
:10E6A40081B002208DF8030001B0704780B582B0BC
:10E6B4001A208DF8070001F029FCFFE702B080BDA5
:10E6C40080B582B00F208DF8070001F097FEFFE7B8
:10E6D40002B080BD80B582B010208DF8070001F033
:10E6E400BFF9FFE702B080BD84B0014602900298F2
:10E6F4000078C207002A0191009009D0FFE7009832
:10E70400012804D1FFE701208DF80F0004E0FEDEAC
:10E7140000208DF80F00FFE79DF80F0004B070474C
:10E7240085B00A46034603908DF8131002920193B4
:10E73400FFE70398016821F4800101609DF813004C
:10E7440080050090FFE703980168009A1143016077
:10E75400039805B0704780B584B0014602900298D2
:10E7640001228DF80F209DF80F200191114600F031
:10E7740005F80090FFE7009804B080BD80B588B02C
:10E784000A46034606908DF81F1006980DF11F01E6
:10E794000590084604920393FFF7A6FF0290FFE753
:10E7A400029800F001010598FFF7BAFF0190FFE716
:10E7B400019808B080BD81B000200090009801B09D
:10E7C400704783B00146019001980290029800912D
:10E7D40003B0704783B001460190019802900298FB
:10E7E400009103B0704783B00146019001980290F4
:10E7F4000298009103B0704783B0014601900198DC
:10E8040002900298009103B0704783B001460190D2
:10E81400019802900298009103B0704784B00146B9
:10E82400029002980078C207002A0191009009D052
:10E83400FFE70098012804D1FFE701208DF80F00BD
:10E8440004E0FEDE00208DF80F00FFE79DF80F00C6
:10E8540004B0704784B00146029002980078C20761
:10E86400002A0191009009D0FFE70098012804D103
:10E87400FFE701208DF80F0004E0FEDE00208DF894
:10E884000F00FFE79DF80F0004B0704784B0014605
:10E89400029002980078C207002A0191009009D0E2
:10E8A400FFE70098012804D1FFE701208DF80F004D
:10E8B40004E0FEDE00208DF80F00FFE79DF80F0056
:10E8C40004B0704784B00146029002980078C207F1
:10E8D400002A0191009009D0FFE70098012804D193
:10E8E400FFE701208DF80F0004E0FEDE00208DF824
:10E8F4000F00FFE79DF80F0004B0704785B00A468B
:10E90400034603908DF8131002920193FFE70398D6
:10E91400016821F4003101609DF813004004009067
:10E92400FFE703980168009A11430160039805B05A
:10E93400704780B584B001460290029801228DF898
:10E944000F209DF80F200191114600F005F800906A
:10E95400FFE7009804B080BD80B588B00A4603463E
:10E9640006908DF81F1006980DF11F0105900846BA
:10E9740004920393FFF752FF0290FFE7029800F01E
:10E9840001010598FFF7BAFF0190FFE7019808B06D
:10E9940080BD85B00A46034603908DF81310029299
:10E9A4000193FFE70398016821F0100101609DF8CD
:10E9B400130000010090FFE703980168009A1143D7
:10E9C4000160039805B0704780B584B00146029099
:10E9D400029801228DF80F209DF80F200191114615
:10E9E40000F005F80090FFE7009804B080BD80B502
:10E9F40088B00A46034606908DF81F1006980DF15C
:10EA04001F010590084604920393FFF723FF029029
:10EA1400FFE7029800F001010598FFF7BAFF0190A3
:10EA2400FFE7019808B080BD85B00A46034603900D
:10EA34008DF8131002920193FFE70398016821F403
:10EA4400807101609DF8130000020090FFE70398B5
:10EA54000168009A11430160039805B0704780B5BE
:10EA640084B001460290029801228DF80F209DF88F
:10EA74000F200191114600F005F80090FFE700987F
:10EA840004B080BD80B588B00A46034606908DF870
:10EA94001F1006980DF11F01059008460492039378
:10EAA400FFF7F4FE0290FFE7029800F001010598D9
:10EAB400FFF7BAFF0190FFE7019808B080BD85B069
:10EAC4000A46034603908DF8131002920193FFE760
:10EAD4000398016821F4007101609DF8130040025D
:10EAE4000090FFE703980168009A114301600398BE
:10EAF40005B0704780B584B00146029002980122A7
:10EB04008DF80F209DF80F200191114600F005F8B3
:10EB14000090FFE7009804B080BD80B588B00A4635
:10EB2400034606908DF81F1006980DF11F010590FD
:10EB3400084604920393FFF7C5FE0290FFE702988C
:10EB440000F001010598FFF7BAFF0190FFE7019873
:10EB540008B080BD80B584B00146029040F2120036
:10EB6400C2F202000078C0070028009103D1FFE739
:10EB740000F0D4FA03E000208DF80F0003E0012038
:10EB84008DF80F00FFE79DF80F0004B080BD81B041
:10EB940000200090009801B0704783B001460190B6
:10EBA400019802900298009103B0704783B0014627
:10EBB4000190019802900298009103B0704783B0CD
:10EBC40001460190019802900298009103B07047A9
:10EBD40084B00146029002980078C207002A01918D
:10EBE400009009D0FFE70098012804D1FFE7012035
:10EBF4008DF80F0004E0FEDE00208DF80F00FFE723
:10EC04009DF80F0004B0704784B00146029002984A
:10EC14000078C207002A0191009009D0FFE700980C
:10EC2400012804D1FFE701208DF80F0004E0FEDE87
:10EC340000208DF80F00FFE79DF80F0004B0704727
:10EC440085B00A46034603908DF81310029201938F
:10EC5400FFE70398016821F0010101609DF81300AA
:10EC64000090FFE703980168009A1143016003983C
:10EC740005B0704780B584B0014602900298012225
:10EC84008DF80F209DF80F200191114600F005F832
:10EC94000090FFE7009804B080BD80B588B00A46B4
:10ECA400034606908DF81F1006980DF11F0105907C
:10ECB400084604920393FFF78BFF0290FFE7029844
:10ECC40000F001010598FFF7BBFF0190FFE70198F1
:10ECD40008B080BD85B00A46034603908DF8131032
:10ECE40002920193FFE70398016821F0100101608B
:10ECF4009DF8130000010090FFE703980168009A53
:10ED040011430160039805B0704780B584B0014693
:10ED14000290029800228DF80F209DF80F20019197
:10ED2400114600F005F80090FFE7009804B080BD9C
:10ED340080B588B00A46034606908DF81F100698E1
:10ED44000DF11F010590084604920393FFF75CFF41
:10ED54000290FFE7029800F001010598FFF7BAFF5F
:10ED64000190FFE7019808B080BD84B0014602908D
:10ED740002980078C207002A0191009009D0FFE7A9
:10ED84000098012804D1FFE707208DF80F0004E064
:10ED9400FEDE00208DF80F00FFE79DF80F0004B0A1
:10EDA400704785B00A46034603908DF8131002920B
:10EDB4000193FFE70398016821F00E0101609DF8BB
:10EDC400130000F0070040000090FFE7039801687B
:10EDD400009A11430160039805B0704780B588B06C
:10EDE4000A46034606908DF81F1006980DF11F0180
:10EDF4000590084604920393FFF7B7FF0290FFE7DC
:10EE040005980299FFF7CDFF0190FFE7019808B03C
:10EE140080BD80B584B001460290029800228DF82E
:10EE24000F209DF80F2001911146FFF7D7FF0090A6
:10EE3400FFE7009804B080BD80B500F077FAFFE7E3
:10EE440080BD80B500F070FAFFE780BD82B0014656
:10EE540001900120009102B0704785B00A46034634
:10EE640003908DF8131002920193FFE70398016851
:10EE740021F0010101609DF813000090FFE7039861
:10EE84000168009A11430160039805B0704780B58A
:10EE940084B0014602900298019100F005F80090B8
:10EEA400FFE7009804B080BD80B586B001460490A9
:10EEB400049805AA039010460291FFF7C7FF01903A
:10EEC400FFE7019800F001010398FFF7C6FF0090E7
:10EED400FFE7009806B080BD81B000200090009844
:10EEE40001B0704783B001460190019802900298E6
:10EEF400009103B0704780B58AB00A460346049077
:10EF0400059103920293FEF70BFC0690FFE7059828
:10EF140006A907910799FEF7E1F80190FFE7049825
:10EF2400069908900991089800F05CFB099900F093
:10EF340060FBFFE70AB080BD80B588B0014602904F
:10EF44000191FEF730F90490FFE704A805900598B5
:10EF5400FEF7E0F80090FFE7029804990690079105
:10EF6400069800F03FFB079900F043FBFFE708B069
:10EF740080BD81B04FF0FF300090009801B0704721
:10EF840083B001460190019802900298009103B069
:10EF9400704783B001460190019802900298009155
:10EFA40003B0704785B00A46034603908DF81310EA
:10EFB40002920193FFE70398016821F01F010160A9
:10EFC4009DF8130000F01F000090FFE7039801680C
:10EFD400009A11430160039805B0704785B00A4652
:10EFE400034603908DF8131002920193FFE70398F0
:10EFF400016821F0004101609DF81300C0070090F2
:10F00400FFE703980168009A11430160039805B073
:10F01400704780B584B001460390039800220291A2
:10F02400114600F005F80190FFE7019804B080BD97
:10F0340085B00A46034603908DF81310029201939B
:10F04400FFE70398016821F0010101609DF81300B6
:10F054000090FFE703980168009A11430160039848
:10F0640005B0704780B584B0014603900398002230
:10F074000291114600F005F80190FFE7019804B0F1
:10F0840080BD85B00A46034603908DF813100292A2
:10F094000193FFE70398016821F0010101609DF8E5
:10F0A40013000090FFE703980168009A1143016080
:10F0B400039805B0704749F20000C4F2000070479D
:10F0C40080B584B0014603900291FFF7F4FF0190EC
:10F0D400FFE7019804B080BD42F20050C4F28400FE
:10F0E400704780B584B0014603900291FFF7F4FFA6
:10F0F4000190FFE7019804B080BD42F20050C5F2D0
:10F104008400704780B584B0014603900291FFF7F4
:10F11400F4FF0190FFE7019804B080BDADF5567D82
:10F124000020002811D1FFE740F21200C2F20200D1
:10F134000078C007002801D1FFE706E041F224204F
:10F14400C0F2010001F028FBFEDE40F21200C2F220
:10F154000200012101700DF5567D704780B584B021
:10F1640001460390039800220291114600F005F82D
:10F174000190FFE7019804B080BD85B00A460346BC
:10F1840003908DF8131002920193FFE7039801682E
:10F1940021F0010101609DF813000090FFE703983E
:10F1A4000168009A11430160039805B0704780B567
:10F1B40084B001460390039800220291114600F0A6
:10F1C40005F80190FFE7019804B080BD85B00A46B8
:10F1D400034603908DF8131002920193FFE70398FE
:10F1E400016821F0010101609DF813000090FFE720
:10F1F40003980168009A11430160039805B07047B1
:10F2040080B584B001460390039800220291114610
:10F2140000F005F80190FFE7019804B080BD85B0C7
:10F224000A46034603908DF8131002920193FFE7F8
:10F234000398016821F0010101609DF8130000901A
:10F24400FFE703980168009A11430160039805B031
:10F25400704799B040F21300C2F20200012101701C
:10F2640019B070474EF20010CEF20000704780B51E
:10F2740084B0014603900291FFF7F4FF0190FFE789
:10F28400019804B080BD80B584B001460390039812
:10F2940041F23C22C0F201020291114600F007F84B
:10F2A4000190FFE7019800F0010004B080BD92B026
:10F2B4000A460346079008910798007800210F91A9
:10F2C4000E900E980F990692059304900391FFE710
:10F2D40004980A90089909780022119210911099C3
:10F2E400119A02910192FFE702980B900A990B9AE6
:10F2F400914208D1FFE7079808990C900D910120DD
:10F304008DF8270003E000208DF82700FFE79DF823
:10F31400270012B0704782B0014601900198009115
:10F3240002B0704700BE704772B6704762B670474D
:10F3340000BF0138FCD17047EFF31080704782B0F2
:10F3440002B0704780B588B013468C468646039059
:10F3540004910592039804A9069105A907910699B9
:10F36400079A0293CDF804C0CDF800E000F01AF833
:10F37400FFE708B080BD80B586B013468C4686464C
:10F3840003900491059205980399049A09681268F8
:10F394000293CDF804C0CDF800E000F05CF8FFE77C
:10F3A40006B080BD80B58AB013468C46864604906C
:10F3B40005910692059806990790089104A809906A
:10F3C40007A80393CDF808C0CDF804E000F01BF8BB
:10F3D400FFE70AB080BD80B586B001460268436885
:10F3E4008068006804910392029300F02DF8019064
:10F3F400FFE701980590059A03980299FFF7BBFF70
:10F40400FFE706B080BD80B588B0EFF310810791A7
:10F41400079901910090FFE772B6FFE70098016831
:10F424004268836805930492039103A8FFF7D3FF0E
:10F43400FFE79DF80400C007002803D1FFE762B688
:10F44400FFE7FFE708B080BD82B001460190019854
:10F45400009102B0704780B588B013468C4686464A
:10F4640005900691079206980599086007980599F2
:10F474004860069807990493CDF80CC0CDF808E0CD
:10F4840000F045F801900091FFE70598019981602B
:10F49400009AC26008B080BD82B004200190019837
:10F4A4000090FFE7009802B0704782B008200190F6
:10F4B40001980090FFE7009802B0704780B586B0CD
:10F4C40013468C468646039004910592039804994A
:10F4D400059A016042600293CDF804C0CDF800E0C3
:10F4E40006B080BD80B586B013468C468646039030
:10F4F4000491059203980499059A0293CDF804C0E7
:10F50400CDF800E0FFF7DAFFFFE706B080BD80B575
:10F5140090B00A4603460590069104920393FFF7C0
:10F52400C4FF0290FFE700F02AF80190FFE7029879
:10F53400019988420ED1FFE7059809900998069928
:10F5440000220C920A910C990B910A990B9AFFF7DD
:10F55400C9FF06E041F2DC20C0F2010001F01CF911
:10F56400FEDE09980F9000200D900F980E900D98D4
:10F574000E99079008910798089910B080BD80B53E
:10F5840082B0FFF789FF0190FFE7019801180A464E
:10F594008142009203D3FFE7009802B080BD41F29C
:10F5A4009430C0F2010001F0F7F8FEDE84B00146A9
:10F5B4000290029800680390039801910090FFE77D
:10F5C400009804B0704784B00A46034602908DF850
:10F5D4000F1002989DF80F10017001920093FFE73D
:10F5E40004B0704782B0014601900198009102B0C6
:10F5F400704784B00A460346029003910298039927
:10F60400016001920093FFE704B0704780B586B0B3
:10F6140013468C46864603908DF813100592039882
:10F62400059A9DF813100293CDF804C0CDF800E0BC
:10F6340000F067F8FFE706B080BD86B00A460346CF
:10F64400039004910398049900EB810005900598B8
:10F65400029201930090FFE7009806B0704786B0CD
:10F664000A460346039004910398049900EB810031
:10F6740005900598029201930090FFE7009806B068
:10F68400704780B584B001460390039802910190BD
:10F6940000F0D9F90090FFE701980099421AB2FAF4
:10F6A40082F2500904B080BD80B58CB0014605904B
:10F6B400079806900491FFE7059806A90A910A990C
:10F6C4000B910B9903900291FFE701220398029991
:10F6D40000F045F8FFE70698089008980990099803
:10F6E4000190FFE701980CB080BD84B00A46034640
:10F6F400029003910298039901600192009304B06F
:10F70400704780B588B013468C46864605908DF8C0
:10F714001B100792012000280493CDF80CC0CDF8EB
:10F7240008E012D1FFE7059800F073F80190FFE7B5
:10F734000198C107002901D0FFE706E041F2F43047
:10F74400C0F2010001F028F8FEDE05989DF81B20A8
:10F754000799890001F002FBFFE708B080BD80B57E
:10F764008AB013468C468646079008910992012078
:10F7740000280693CDF814C0CDF810E012D1FFE7AD
:10F78400079800F046F80390FFE70398C1070029A3
:10F7940001D0FFE706E041F23C40C0F2010000F076
:10F7A400FBFFFEDE0120002812D1FFE7089800F0DD
:10F7B40030F80290FFE70298C107002901D0FFE763
:10F7C40006E041F28040C0F2010000F0E5FFFEDEF9
:10F7D4000120002814D1FFE707980899099A00F03E
:10F7E4004CF80190FFE70198C107002901D1FFE718
:10F7F40006E041F2C040C0F2010000F0CDFFFEDEA1
:10F8040007990898099A920001F036FAFFE70AB0BE
:10F8140080BD80B586B00146049004980391FFF73B
:10F8240030FF02900DE000208DF8170005E00498E9
:10F83400019000F075F8009008E09DF8170006B0FC
:10F8440080BD0298C1070029F1D0ECE70098002898
:10F854000CD0FFE701980099B0FBF1F202FB110212
:10F86400B2FA82F252098DF81720E6E741F26C50A1
:10F87400C0F2010000F090FFFEDE80B58EB01346AA
:10F884008C46864607900891099207980A90089832
:10F894000B900693CDF814C0CDF810E000F037F8C3
:10F8A4000390FFE70999039800F058F8029001913A
:10F8B400FFE70298019900F0A2F80C90FFE70A987C
:10F8C4000B99884205D8FFE70B980A99401A0D90C6
:10F8D40004E00A980B99401A0D90FFE70C980D99D3
:10F8E4000022884288BF012210460EB080BD80B538
:10F8F40084B000F01EF80190FFE70198029002998D
:10F90400039103980090FFE7009804B080BD82B093
:10F914000420019001980090FFE7009802B070471E
:10F9240082B00420019001980090FFE7009802B093
:10F93400704780B586B003980290FFE702A8049050
:10F944000498059005980190FFE700210122019891
:10F95400FFF75CFEFFE7029806B080BD80B58AB071
:10F964000A4603460490059104980599039202936C
:10F9740000F01CF801900091FFE7019808900099AD
:10F9840001F001028DF827209DF82720D207002AD4
:10F9940005D1FFE7089807900120069002E00020B7
:10F9A4000690FFE7069807990AB080BD8CB00A4616
:10F9B40003460490059104980599A0FB01010029D0
:10F9C40018BF01210A908DF82C100A989DF82C106C
:10F9D4000392029301900091FFE701980890009927
:10F9E40001F001028DF82720089A9DF8273006922D
:10F9F4008DF81C3006989DF81C100CB0704788B028
:10FA04000A4603460590069105980028049203933C
:10FA1400029004D0FFE70298012808D006E041F2E2
:10FA2400C450C0F2010000F0B7FEFEDEFEDE069810
:10FA34000790079805990129019003D1FFE70198E0
:10FA440008B07047FBE70020704784B00A460346BD
:10FA54000290039102980192009304B07047D4D4A9
:10FA6400F0B56C4B83B01B78002B00F0AD806A4B73
:10FA74001C68A26863689A422DD04BF6EF63ADF818
:10FA8400003023786E468DF80430636805219A426D
:10FA94002ABF27699F1ABF1A9A4294BF0025E568B6
:10FAA400BFB288BF5B1B304688BF9DB2ADF8027001
:10FAB400FEF7A6FBBDF80210A068FEF7A1FBA36841
:10FAC40022691F44974208BFE368A76008BFA36088
:10FAD400002D40F08D80514B1C68A26863689A42E7
:10FAE4002CD04BF6EF63ADF8003023786E468DF8DA
:10FAF4000430636805219A422ABF27699F1ABF1AF6
:10FB04009A4294BF0025E568BFB288BF5B1B3046AC
:10FB140088BF9DB2ADF80270FEF772FBBDF802100B
:10FB2400A068FEF76DFBA36822691F44974208BFD3
:10FB3400E368A76008BFA360002D48D1384B1C6858
:10FB4400A26863689A422BD04BF6EF63ADF800309D
:10FB540023786E468DF80430636805219A422ABFE3
:10FB640027699F1ABF1A9A4294BF0025E568BFB25D
:10FB740088BF5B1B304688BF9DB2ADF80270FEF7AC
:10FB84003FFBBDF80210A068FEF73AFBA3682269A8
:10FB94001F44974208BFE368A76008BFA3600DB97C
:10FBA40003B0F0BD30460521ADF80250FEF728FB46
:10FBB400BDF80210E068FEF723FBBDF80220E368FD
:10FBC4001344A36003B0F0BDFEF70EFB4FE705211D
:10FBD4003046ADF80250FEF713FBBDF80210E068A2
:10FBE400FEF70EFBBDF80220E3681344A360A5E70B
:10FBF40005213046ADF80250FEF702FBBDF80210B5
:10FC0400E068FEF7FDFABDF80220E3681344A36040
:10FC140061E700BF240002201C000220140002201F
:10FC24001800022000222DE9F04FB04B83B01B686E
:10FC340019695C69187C1A74587C5A74987C9A7493
:10FC4400D87CDA74187D1A75587D5A75987D9A7522
:10FC5400D87DDA75B9B10139032914D8DFE811F078
:10FC6400D6000301040016000125032000226FF0D2
:10FC74005F019F4C25701C7A1872587A5A72987AD0
:10FC84009A72DA7AD97203B0BDE8F08F04210022A7
:10FC94006FF05F001C7A1972597A5A7294499C7AEF
:10FCA4009A72DC7AD8720A700B78002B00F01781F4
:10FCB400904B1C68A26863689A422DD04BF6EF63A0
:10FCC400ADF8003023786E468DF804306368052162
:10FCD4009A422ABF27699F1ABF1A9A4294BF0025E5
:10FCE400E568BFB288BF5B1B304688BF9DB2ADF8E4
:10FCF4000270FEF785FABDF80210A068FEF780FADC
:10FD0400A36822691F44974208BFE368A76008BF3D
:10FD1400A360002D40F0D280774B1C68A268636812
:10FD24009A422DD04BF6EF63ADF8003023786E463F
:10FD34008DF80430636805219A422ABF27699F1A07
:10FD4400BF1A9A4294BF0025E568BFB288BF5B1B07
:10FD5400304688BF9DB2ADF80270FEF751FABDF887
:10FD64000210A068FEF74CFAA36822691F44974268
:10FD740008BFE368A76008BFA360002D40F08D8032
:10FD84005E4B1C68A26863689A423FF47CAF4BF6F2
:10FD9400EF63ADF8003023786E468DF80430636865
:10FDA40005219A422ABF27699F1ABF1A9A4294BF13
:10FDB4000025E568BFB288BF5B1B304688BF9DB293
:10FDC400ADF80270FEF71CFABDF80210A068FEF749
:10FDD40017FAA36822691F44974208BFE368A76023
:10FDE40008BFA360002D3FF44EAF05213046ADF8A7
:10FDF4000250FEF705FABDF80210E068FEF700FABB
:10FE0400BDF80220E3681344A3603CE7384A117844
:10FE140009B100211170A568002D39D04FF0000CF4
:10FE2400DFF8D4A0DFF8CCB03449E1466646624638
:10FE3400D1F800E0DAF80080DBF8007008E063290C
:10FE440016D0612904BF074601260132AA4213D005
:10FE5400911C04EB8101486801786229EFD1804646
:10FE64004FF00109F1E7FEF7B3F903B0BDE8F08FF5
:10FE740086464FF0010CE8E7A6BBB9F1000F01D0AC
:10FE8400CAF80080BCF1000F02D01C4AC2F800E09E
:10FE9400012000226FF05F01EDE605213046ADF848
:10FEA4000250FEF7ADF9BDF80210E068FEF7A8F9BC
:10FEB400BDF80220E3681344A36061E705213046DE
:10FEC400ADF80250FEF79CF9BDF80210E068FEF7A9
:10FED40097F9BDF80220E3681344A3601CE7FEF71A
:10FEE40083F9E5E6CBF80070C7E700BF20000220E5
:10FEF400240002201C00022014000220180002200A
:10FF0400014B1878704700BF240002202DE9F04F00
:10FF14004FF48065B14C87B0C4F88450BFF34F8F61
:10FF2400BFF36F8FAE4EC4F88451D6F80C331F065E
:10FF340000F1C880AA4BD3F80C23D00700F1D48079
:10FF4400D3F80C2312F0400240F0B680D3F80C131F
:10FF5400490700F1EA80D3F80C33DB0640F19D80B9
:10FF640000219F4A9F4BC2F810111B680493049B05
:10FF7400DFF89C829C4FDFF89C92D8F800A0DAF856
:10FF8400001000293FD00022144602E001348C42C4
:10FF940027D20AEBC405AB68002BF7D06E68F6B223
:10FFA400012EF3D16868B9F80030B3EB104FEDD1EE
:10FFB4006A68013322F0FF0242F002026A60A86814
:10FFC400A9F8003000F07EF9324628B96B6823F0B6
:10FFD400FF0343F003036B60DAF8001001348C4232
:10FFE400D7D3002ACDD171B113460AEBC30290686E
:0CFFF400013330B1D2F804B05FFA8BFB8F
:020000021000EC
:10000000BBF1010F03D08B42F1D14FF0000BD7F8B9
:1000100000A0DAF80020002A3DD000210C4602E0C2
:100020000134944227D20AEBC405AB68002BF7D009
:100030006E68F6B2012EF3D16868B9F80030B3EB00
:10004000104FEDD16A68013322F0FF0242F0020244
:100050006A60A868A9F8003000F036F9314628B97E
:100060006A6822F0FF0343F003036B60DAF80020B4
:1000700001349442D7D30029CDD162B10B460AEBAB
:10008000C3018868013320B14968C9B201293FF42E
:1000900076AF9342F3D1BBF1000F7FF470AF4FF412
:1000A0008061534B4E4A1B685B01DBB282F82A33F6
:1000B000C2F88411516007B0BDE8F08F06224D4BA5
:1000C0001A6007B0BDE8F08FFFF7AEFDFFF71AFF2B
:1000D000002851D1484BC6F81C011B680193019BB5
:1000E000404BD3F80C23D0077FF52CAF002048F20B
:1000F00003024249C3F80001096802910299D3F84A
:100100001436934246D022D848F2010293423AD0A4
:1001100048F20202934229D103210620354A384B86
:100120001160186007B0BDE8F04F00F0EFB8314D36
:100130002968C3F808210129324933D00A6803929B
:10014000039AD3F80C33DA067FF514AF0AE7B3F15C
:10015000886F0BD92C4A934202D92C4A934205D17D
:1001600003202449264A08601360AAE70320214A95
:10017000234B10601860D5E7E02384F82A336560CC
:1001800007B0BDE8F08F032107201A4A1C4B11600D
:100190001860C7E704230321194C164A1846236048
:1001A0001160BFE71A4A0B681268059393681948F3
:1001B0000E4903605468059A0C6073B16CB11B68FA
:1001C000102B02D82268102A28D94CF206030322E9
:1001D0000B4918460B602A60A4E71023F7E700BF1D
:1001E00000E100E000A0024010A102403400022023
:1001F0002C000220300002201CA1024000A102407D
:100200002800022008A1024004004004010050051B
:100210003C0002203800022026000220DFF8A480E3
:10022000002A42D0002304F104091E4602E00136F0
:1002300096422AD2F700E11988680028F7D0D1F851
:1002400004A05FFA8AFABAF1010FF0D1D1F804C024
:10025000B8F80000B0EB1C4FE9D14B68421C23F00A
:10026000FF0343F002034B608868A8F8002000F009
:100270002BF8534638B959F8072022F0FF0242F014
:10028000030249F807202268D1E7002BC8D112B930
:100290000BE0934209D004EBC301886801330028C6
:1002A000F7D04968C9B20129F3D10220034B4FF4BA
:1002B0008061034A1B682860F6E600BF2C0002201C
:1002C00000E100E02600022060B108B54368DBB21F
:1002D000022B0ED003681B0C022B05D0042B0ED072
:1002E000002008BD00207047806800F07DF80020E5
:1002F00008BD0146BDE80840034800F0E7B80248E1
:1003000000F0FAF9002008BD40000220704700BF4D
:100310002DE9F04FDFF8CCC083B000900CF13C0B1E
:10032000DCF808302BB1DCF80020009C1078A042EB
:1003300006D00CF10C0CE345F2D103B0BDE8F08F10
:10034000DCF804A003EB0A08C245F2D25368CDF8EA
:1003500004C0D6469C46D2F810909789AEEB0A00AE
:10036000DFB3B9F8022090421CD36546002409F19E
:10037000040303E05A880433824215D833F8046C2E
:100380000134A74202FB0655A0EB02001E46F1D144
:10039000002081420DD00EF1010EF045DED1DDF8D6
:1003A00004C0C6E765464E46338800FB03508142D1
:1003B000F1D1BEF5007FDDF804C0BAD00123084AB0
:1003C0004FEA5E1152F821000EF01F0E03FA0EFEE6
:1003D0004EEA000042F82100AFE73846D9E700BFF7
:1003E0004400022084000220044B1B7823B118B182
:1003F00001460120FFF78CBF704700BFC0000220FC
:100400002DE9F0412E4CFDF7CDFE03272D4D2E4E4C
:1004100004F1800802E0083444453BD014F8043C61
:10042000022BF8D120682988026892B2914233D019
:10043000298A914232D0298C91421CD02B8E934232
:100440002ED0B5F8403093422FD0B5F850309342BB
:100450002DD0B5F8603093422BD0B5F87030934270
:1004600029D0B5F88030934227D0B5F89030934228
:1004700008BF0923CFD105EB03135A68D968904709
:1004800080B90122206804F8042CF36808349847E6
:100490004445C3D1BDE8F0810023ECE70123EAE73E
:1004A0000323E8E704F8047CB5E70423E3E7052326
:1004B000E1E70623DFE70723DDE70823DBE700BFEB
:1004C00000020220C40002206401022038B5864ADE
:1004D0000B6810889BB2984229D0108A984226D087
:1004E000108C984223D0108E984220D0B2F8400051
:1004F00098421CD0B2F85000984218D0B2F8600070
:10050000984214D0B2F87000984210D0B2F880002F
:1005100098420CD0B2F890209A4208D088680028FF
:1005200000F0A980714B1B699847002038BD88688E
:10053000002800F091806E4A1568002D3BD0946829
:10054000002C00F09A801469002C00F098809469C7
:10055000002C00F09680146A002C00F09480946ABD
:10056000002C00F08680146B002C00F09080946BBF
:10057000002C00F09080146C002C00F09080946CA3
:10058000002C00F09080146D002C00F09280946D8F
:10059000002C00F09080146E002C00F09280946E7D
:1005A000002C00F09080146F002C00F08E80946F6F
:1005B000002CB7D10F2502EBC50442F83500A3800B
:1005C0004C4B1A78012A60D01A7A012A47D01A7C3B
:1005D000012A5ED01A7E012A5FD093F82020012ADA
:1005E0005FD093F82820012A5FD093F83020012AA9
:1005F0005DD093F83820012A5FD093F84020012A7B
:100600005DD093F84820012A61D093F85020012A48
:100610005FD093F85820012A5DD093F86020012A1A
:100620005BD093F86820012A59D093F87020012AF2
:1006300057D093F87820012A10D0102D1BD0002419
:100640002B4B2A4A03EBC50043F835408480886869
:1006500013699847204638BD1025B1E70F220224C0
:1006600003EBC200416003F83240FDF7A7FD012013
:1006700038BD05259FE7002038BD01259BE70225F1
:1006800099E7032597E7042595E70022E7E7062584
:1006900091E70222E3E707258DE70322DFE708253C
:1006A00089E70422DBE7092585E70522D7E706224B
:1006B000D5E70A257FE70B257DE70722CFE708224C
:1006C000CDE70C2577E70D2575E70E2573E70922A1
:1006D000C5E70A22C3E70B22C1E70C22BFE70D22C0
:1006E000BDE70E22BBE700BFC40002206401022068
:1006F0007C010220FC01022000283AD02DE9F047BD
:1007000080461D4C04F1A005A368103403B198473E
:10071000AC42F9D14FF001090026184C184DDFF812
:1007200064A004F1800714F8043C012B05D0DAF82A
:100730000C302068984704F8049C55F8040C0834E1
:1007400028B1DAF8103098472E8045F8046CBC4286
:1007500005F10805E7D1D8F800001822013800EBB0
:1007600040000AEBC000002100F031FA0020BDE893
:10077000F0870E20704700BFC40002200002022054
:10078000800102206401022070474CF2902046F65E
:100790006511CCF68050C0F2C54170478CB090E82E
:1007A0000650D0E90430CDE9061241F2DC520021B6
:1007B000C0F2010205910492CDE9021101210191DB
:1007C00006A9009108A9CDE90A306846CDE908CE0E
:1007D00000F021F8FEDE8CB0034640F6C530CDE9CE
:1007E0000012C0F2010069460B90CDE9090101A891
:1007F0000890022008A90790069100210591CDE9F3
:10080000030141F22460C0F201001946029002A8DF
:1008100000F001F8FEDE88B0D1E900C3D1E9022181
:100820000791CDE90532CDE9030C41F20060C0F239
:100830000100029041F2DC50C0F20100019001A8D9
:10084000FDF70EFDFEDE2DE9F04F83B0DDE90C690A
:100850001F4692460446C9B1D4F800E04FF02B0879
:100860001EF0010108BF4FF4881801EB090B5FEA85
:100870004E7114D5BFB1791E07F0030C032914D2B1
:1008800000215346BCF1000F36D14DE0D4F800E012
:1008900009F1010B4FF02D085FEA4E71EAD44FF0D9
:1008A000000A002744E000213EE0CDE90196ACEBD0
:1008B0000706002153461D785A78987805F0C00540
:1008C00093F80390802D02F0C00208BF0131802A06
:1008D00000F0C00008BF0131802809F0C00008BF47
:1008E0000131802808BF013104330436E3D1DDE94A
:1008F0000196BCF1000F17D0187800F0C0008028D6
:1009000008BF0131BCF1010F0ED0587800F0C000D3
:10091000802808BF0131BCF1020F05D0987800F0A3
:10092000C000802808BF01310BEB0700A0EB010BD2
:10093000A068012815D1E5685D4512D95FEA0E70FF
:10094000029623D494F83000A5EB0B0B032808BFC4
:100950000120810736D0022836D05D464FF0000BCB
:1009600038E02046414652463B4600F091F820B11F
:100970000126304603B0BDE8F08FE1694A46A06920
:10098000CB68314603B0BDE8F04F18470126302050
:1009900084F8306041466060204652463B4600F095
:1009A00077F80028E5D194F83000A5EB0B08032870
:1009B00008BF012081073AD002283AD045464FF0BF
:1009C00000083CE0002505E00BF101004FEA5B0563
:1009D0004FEA500B4FF0FF360136AE4207D2616846
:1009E000D4E90602126990470028F5D0C0E72046F6
:1009F000414652463B46656800F04AF80028B7D1A8
:100A0000D4E906014A46CB68029998470028AFD13D
:100A1000D4E906844FF0FF37012601375F4535D210
:100A200022694046294690470028F6D0A1E70025D4
:100A300005E008F101004FEA58054FEA50084FF071
:100A4000FF360136AE4207D26168D4E90602126968
:100A500090470028F5D08BE7D4F804A04A46D4E9A3
:100A60000601CB680299984700287FF481AFD4E94A
:100A700006744FF0FF3501260135454506D222693F
:100A80003846514690470028F6D072E7002670E7B6
:100A900070B51C4615460646B1F5881F06D0D6E946
:100AA00006021269904708B1012070BD3DB1D6E938
:100AB00006012246CB682946BDE870401847002051
:100AC00070BD2DE9F04F8FB0174642F21072904280
:100AD00046D341F2597948F21F5A41F234664EF238
:100AE000FF080023CDF2B719C5F2EB1AC0F20106D8
:100AF0004FF0640BC0F2F558CDE90317A0FB09478E
:100B00000DF11501CD18043B40454FEA573404FB65
:100B100012072046A7FB0ACE4FEA5E1136F81120D5
:100B200001FB1B71A5F8232042F2107236F8111058
:100B3000A5F82510E2D8DDE9031703F127022046C6
:100B4000632810DC03460A2B25DB41F23460C0F237
:100B5000010030F81330901E0DF1150213521FE002
:100B600027226328EEDD48F21F5386B2C5F2EB134D
:100B7000023AA6FB036364265B0903FB160041F2FD
:100B80003466C0F2010680B236F810000DF1150689
:100B9000B0520A2BD9DA501E0DF11502303313541E
:100BA000C0F127030DF11502104441F2DC52CDE9EA
:100BB0000003C0F2010238460023FFF744FE0FB0E5
:100BC000BDE8F08F00680A460121FFF77ABF002ACE
:100BD00008BF704780B5531E02F0030C032B01D2EF
:100BE00000220AE0A2EB0C0E00228154831804328A
:100BF0009645D97099705970F7D1BCF1000FBDE8D6
:100C000080401CBF8154BCF1010F00D170470244E9
:100C1000BCF1020F51701CBF917070477047B0B5A6
:100C20005AB3531E02F0030C032B04D20022BCF172
:100C3000000F13D121E0A2EB0C0E00228B5C8C186C
:100C4000835483180432657896455D70A5789D704D
:100C5000E478DC70F2D1BCF1000F0ED08B5CBCF1FB
:100C6000010F835409D0531CBCF1020FCD5CC55455
:100C700008BFB0BD0232895C8154B0BD042A38BFC0
:100C8000FFF7CDBFB0B5A2F1040C012303EB9C0329
:100C900013F003030ED08E4604465EF8045B012B6E
:100CA00044F8045B1FD1634620467146BCF10C0F2B
:100CB00004D212E01346BCF10C0F0ED30D68103BAA
:100CC0000560032B4D6845608D688560CD6801F136
:100CD0001001C56000F11000F0D802F00302BDE879
:100CE000B040FFF79CBF4D68022B456007D1A2F1D1
:100CF000080308310830BCF10C0FDFD2EDE78B6838
:100D00000C318360A2F10C030C30BCF10C0FD5D276
:100D1000E3E7002908BF704780B54B1E01F0030CC4
:100D2000032B01D200210AE0A1EB0C0E002142545A
:100D3000431804318E45DA709A705A70F7D1BCF1BD
:100D4000000FBDE880401CBF4254BCF1010F00D130
:100D500070470844BCF1020F427018BF82707047A0
:100D60001346D2B2042938BFFFF7D3BF10B5A1F1A3
:100D7000040E42EA0363012443EA024304EB9E04A7
:100D800043EA022314F003040AD08446012C4CF8F1
:100D9000043B0AD174466046BEF10C0F14D21CE02D
:100DA0000C46BEF10C0F18D30EE0022C436003D1A9
:100DB0000830A1F1080403E083600C30A1F10C04B9
:100DC0008446BEF10C0F08D3C0E90033103CC0E9E3
:100DD00002331030032CF7D8844601F00301BDE83C
:100DE00010406046FFF795BF00F029F8FFE740F29A
:100DF0000000C2F2020040F27C21C2F2020100F0C7
:100E00001FF8FFE740F20000C2F2020040F20001CA
:100E1000C2F2020141F26072C0F2010200F034F845
:100E2000FFE7FDF793FAFEDE82B0FFE704208DF8BE
:100E300007009DF8070000F05BF8FFE7F6E7704752
:100E400080B588B00A460346069007910592049340
:100E5000FFE706980799884202D3FFE708B080BDF4
:100E600006980390FEF745FD0290FFE7039802996C
:100E7000FEF7C1FBFFE706980121FEF7E0FB0190BA
:100E8000FFE701980690E4E780B58AB013468C46E8
:100E900086460790089109920693CDF814C0CDF8C4
:100EA00010E0FFE707980899884202D3FFE70AB0ED
:100EB00080BD0798099903900846FEF7F7FB02905A
:100EC000FFE703980299FEF712FCFFE7079801215C
:100ED000FEF7B5FB0190FFE7019807900998012103
:100EE000FEF7BFFB0090FFE700980990DAE7D4D443
:100EF00084B001468DF80B009DF80B0002460428D3
:100F0000019100920CD80099DFE801F0030C0B0D61
:100F10000E0041F24870C0F20100FFF73FFCFEDE18
:100F2000FEDE02E001E000E0FFE704B0704770463B
:100F30000421084202D1EFF3088002E0EFF30980B8
:100F4000FFE784B001460290029803900191FEF7FA
:100F5000EBF9FFE7FFE7FEE784B00146029001915D
:100F6000FFE704208DF80F009DF80F00FFF7C0FF8A
:040F7000FFE7F6E7BA
:100F800063616C6C656420604F7074696F6E3A3A8F
:100F9000756E77726170282960206F6E2061206005
:100FA0004E6F6E65602076616C75657372632F6C31
:100FB0006962636F72652F6F7074696F6E2E7273E2
:100FC000800F01002B000000AB0F01001500000096
:100FD0007A01000015000000000000000000000081
:100FE0002F55736572732F76696E63656E742F2E3D
:100FF000636172676F2F72656769737472792F739B
:1010000072632F6769746875622E636F6D2D316529
:1010100063633632393964623965633832332F633A
:101020006F727465782D6D2D302E362E312F7372C0
:10103000632F61736D2E72730000000000000000CA
:10104000617474656D707420746F206164642077BE
:10105000697468206F766572666C6F774010010066
:101060001C000000E00F01005800000037000000E5
:10107000150000000000000000000000000000005B
:101080002F55736572732F76696E63656E742F2E9C
:10109000636172676F2F72656769737472792F73FA
:1010A00072632F6769746875622E636F6D2D316589
:1010B00063633632393964623965633832332F639A
:1010C0006F727465782D6D2D302E362E312F737220
:1010D000632F7065726970686572616C2F6E7669D6
:1010E000632E72738010010064000000F80000009D
:1010F0000D0000008010010064000000D900000015
:1011000012000000000000000000000000000000CD
:10111000617474656D707420746F2073686966748F
:10112000206C6566742077697468206F76657266D6
:101130006C6F770010110100230000008010010087
:1011400064000000D900000042000000801001008F
:10115000640000007D000000090000001011010083
:101160002300000080100100640000007D000000EA
:101170003900000080100100640000000E01000032
:101180001200000010110100230000008010010077
:10119000640000000E010000420000000073726352
:1011A0002F6D61696E2E7273000000000000000058
:1011B000617474656D707420746F207375627472DD
:1011C0006163742077697468206F766572666C6FEE
:1011D00077000000B0110100210000009D11010006
:1011E0000B000000C7000000010000006173736580
:1011F0007274696F6E206661696C65643A2021447F
:1012000045564943455F5045524950484552414C27
:10121000536E726639312D72732F7372632F6C693E
:10122000622E7273EC110100250000001112010002
:10123000130000002409000009000000006173731E
:10124000657274696F6E206661696C65643A2073BB
:10125000697A655F6F663A3A3C486F6C653E28294B
:10126000203D3D2053656C663A3A6D696E5F736947
:101270007A6528292F55736572732F76696E6365B9
:101280006E742F2E636172676F2F72656769737456
:1012900072792F7372632F6769746875622E636F3A
:1012A0006D2D31656363363239396462396563386F
:1012B00032332F6C696E6B65645F6C6973745F6148
:1012C0006C6C6F6361746F722D302E362E342F73F9
:1012D00072632F686F6C652E727300003D120100FF
:1012E0003700000074120100660000001B000000BF
:1012F00009000000000000000000000000000000E5
:101300002F55736572732F76696E63656E742F2E19
:10131000636172676F2F72656769737472792F7377
:1013200072632F6769746875622E636F6D2D316506
:1013300063633632393964623965633832332F6C0E
:10134000696E6B65645F6C6973745F616C6C6F630D
:1013500061746F722D302E362E342F7372632F68A6
:101360006F6C652E7273000000000000000000002A
:10137000617474656D707420746F206D756C746920
:10138000706C792077697468206F766572666C6F0F
:10139000770000007013010021000000001301001D
:1013A000660000004B0000000900000061747465D5
:1013B0006D707420746F20777269746520746F206B
:1013C000756E616C69676E6564206F72206E756CF6
:1013D0006C20706F696E7465727372632F6C6962D2
:1013E000636F72652F696E7472696E736963732EB1
:1013F00072730000AC1301002D000000D91301002E
:1014000019000000320600000500000061747465D8
:101410006D707420746F20636F70792066726F6DC9
:1014200020756E616C69676E6564206F72206E75E1
:101430006C6C20706F696E74657200000C14010092
:101440002E000000D9130100190000009E050000C5
:1014500005000000617474656D707420746F206302
:101460006F707920746F20756E616C69676E65644A
:10147000206F72206E756C6C20706F696E7465726F
:10148000541401002C000000D913010019000000C1
:101490009F05000005000000617474656D70742084
:1014A000746F20636F707920746F206F7665726C33
:1014B000617070696E67206D656D6F7279000000F4
:1014C0009814010025000000D91301001900000044
:1014D000A005000005000000000000000000000062
:1014E0002F72757374632F3037653063333635313F
:1014F0006365326137623332366637363738653185
:101500003335643864356262626265356431382F20
:101510007372632F6C6962636F72652F696E747288
:10152000696E736963732E7273000000000000001F
:10153000617474656D707420746F2063616C637581
:101540006C617465207468652072656D61696E6494
:101550006572207769746820612064697669736FA9
:1015600072206F66207A65726F00000030150100EE
:1015700039000000E01401004900000033050000BC
:101580001700000063616C6C656420604F707469C3
:101590006F6E3A3A756E77726170282960206F6EAF
:1015A000206120604E6F6E65602076616C7565739A
:1015B00072632F6C6962636F72652F6F7074696FED
:1015C0006E2E7273841501002B000000AF15010010
:1015D000150000007A010000150000000000000066
:1015E000696E646578206F7574206F6620626F7510
:1015F0006E64733A20746865206C656E2069732090
:101600008907010000000000010000008B070100B5
:10161000206275742074686520696E64657820693D
:1016200073200000E01501002000000010160100EA
:101630001200000030303031303230333034303549
:101640003036303730383039313031313132313372
:101650003134313531363137313831393230323158
:10166000323232333234323532363237323832393E
:101670003330333133323333333433353336333736
:10168000333833393430343134323433343434351C
:101690003436343734383439353035313532353302
:1016A00035343535353635373538353936303631E8
:1016B00036323633363436353636363736383639CE
:1016C00037303731373237333734373537363737C6
:1016D00037383739383038313832383338343835AC
:1016E0003836383738383839393039313932393392
:1016F000393439353936393739383939746865729A
:1017000065206973206E6F20737563682074686943
:101710006E6720617320612072656C61786564205A
:10172000636F6D70696C65722066656E6365737258
:10173000632F6C6962636F72652F73796E632F61BB
:10174000746F6D69632E7273FC1601003200000025
:101750002E1701001A000000C40900001800000044
:0400000310000DE9F3
:00000001FF
